:1000000029C0000042C0000040C000003EC0000007
:100010003CC000003AC0000038C000001EC1000013
:1000200034C0000032C0000030C000002EC000000C
:100030002CC000002AC0000028C0000026C000001C
:1000400024C0000022C0000020C000001EC000002C
:100050001CC0000011241FBECFE5D8E0DEBFCDBF1D
:1000600010E0A0E6B0E0E2E0F9E002C005900D92F9
:10007000A237B107D9F720E0A2E7B0E001C01D9296
:10008000A638B207E1F75CD13AC4BACF8FE081BDA0
:10009000D09AA498A598A698A798A09AA19AA29A4F
:1000A000A39A089523E023BF33E808C032BF28B7DE
:1000B000216028BFA89508B600FEFDCF0197B0F7D4
:1000C00013BE0895F8942DE02EBD9BBD8ABD89B75F
:1000D000806189BF78940895662311F0C29A01C0A7
:1000E000C298C39882BB8FEF81BBC49A0000000006
:1000F0000000C4980895C298C39A11BA90B3C49AE4
:1001000000000000000011BA90B3C49899239CF33A
:10011000E3CFBA9ABB9ABC9A80E190E0C3DF60E07B
:1001200080E3DADF85E090E0BDDF60E080E3D4DFEC
:1001300081E090E0B7DF60E08CE3DDDF60E08CE041
:10014000DADF60E086E0D7DF60E081E0D4CF60E016
:1001500081E0D1CFCF93C62F98E2899FC00D1124A3
:1001600060E082E0C8DFCC2329F060E084E1C3DFF7
:10017000C150D9F7CF910895CF93DF93EC018991C6
:10018000882329F061E0B7DF89918111FBCFDF91EE
:10019000CF910895369A349BFECF349A24B135B16D
:1001A000822F932F08950F931F93CF93DF93CDB793
:1001B000DEB727970FB6F894DEBF0FBECDBF182F5E
:1001C000092FC5DF60E080E0C5DF0F931F9382E653
:1001D00090E09F938F938E010F5F1F4F1F930F939C
:1001E000CBD0C801C9DF0F900F900F900F900F90E8
:1001F0000F9027960FB6F894DEBF0FBECDBFDF91EC
:10020000CF911F910F91089580917200909173008A
:100210000196909373008093720080917200909188
:10022000730080FF0AC0A898A99A80ED97E03ADF92
:10023000A998AA9AAD98AB9A08958091720090916E
:10024000730080FD09C0AB98AC9A80ED97E02ADF7F
:10025000AC98AD9AAA98A89A08951F920F920FB6DB
:100260000F9211242F933F934F935F936F937F933C
:100270008F939F93AF93BF93EF93FF938BDF9093F5
:1002800081008093800020918000309181008091D6
:100290008200909183008217930748F48091800038
:1002A00090918100909383008093820013C02091ED
:1002B00080003091810080916000909161008217F0
:1002C000930740F0809180009091810090936100AD
:1002D000809360002091740030917500409160001F
:1002E0005091610060918200709183008091800044
:1002F0009091810058DF209182003091830080919D
:10030000800090918100285C31098217930708F4DE
:100310007BDF84E690E0C6DE88B7806188BFFF910E
:10032000EF91BF91AF919F918F917F916F915F916D
:100330004F913F912F910F900FBE0F901F901895E6
:10034000E8DEA4DE89E690E017DFA09AA19AA29ADF
:10035000A39AA49AA59AA89AA998AA98AB98AC9897
:10036000AD9A16B881E487B9379A88EE93E0AADE91
:1003700080E29EE497DEFCCFAEE0B0E0E1ECF1E09D
:1003800095C20D891E8986E08C831A8309838FEFBD
:100390009FE79E838D83CE014996AC016F89788D4E
:1003A000CE01019608D0EF81F885E00FF11F108291
:1003B0002E96E4E097C2ACE0B0E0E0EEF1E068C277
:1003C0007C016B018A01FC0117821682838181FF07
:1003D000B9C188248394912C8C0E9D1EF7019381C2
:1003E000F60193FD859193FF81916F01882309F4B4
:1003F000A5C1853239F493FD859193FF81916F01F9
:10040000853221F4B70190E0B9D1E8CF512C312CDD
:1004100020E02032A8F48B3261F028F4803251F0D1
:10042000833271F40BC08D3239F0803349F421608E
:1004300028C02260246025C0286023C0206121C01C
:1004400027FD27C0382F30533A3078F426FF06C0F6
:10045000FAE05F9E300D1124532E13C08AE0389EBF
:10046000300D1124332E20620CC08E3221F426FD73
:1004700065C1206406C08C3611F4206802C088363D
:1004800041F4F60193FD859193FF81916F018111F4
:10049000C0CF982F9554933018F09052933028F491
:1004A0000C5F1F4FFFE3F9830DC0833631F08337B4
:1004B00071F0833509F05AC022C0F8018081898328
:1004C0000E5F1F4F44244394512C540114C0380133
:1004D000F2E06F0E711CF801A080B18026FF03C00E
:1004E000652D70E002C06FEF7FEFC5012C873BD117
:1004F0002C0183012C856FE7262E222217C038019C
:10050000F2E06F0E711CF801A080B18026FF03C0DD
:10051000652D70E002C06FEF7FEFC5012C8718D109
:100520002C012C8550E8252E222A830123FC1AC099
:1005300005C0B70180E290E021D13A94832D90E08C
:1005400048165906B0F30EC0F50127FC859127FE29
:1005500081915F01B70190E011D131103A94F1E03F
:100560004F1A51084114510479F7E5C0843611F04F
:10057000893639F5F80127FF07C0608171818281D2
:1005800093810C5F1F4F08C060817181882777FDC0
:100590008095982F0E5F1F4F4FE6B42EB22297FF23
:1005A00009C090958095709561957F4F8F4F9F4FB3
:1005B000F0E8BF2A2AE030E0A4010CD1A82EA81848
:1005C00042C0853731F43FEEB32EB2222AE030E04C
:1005D00024C099EFB92EB2228F36B9F020F48835B5
:1005E00009F0ACC00DC0803721F0883709F0A6C0F3
:1005F00002C020E1B22AB4FE0BC084E0B82A08C0D1
:1006000024FF09C0E6E0BE2A06C028E030E005C0AD
:1006100020E130E002C020E132E0F801B7FE07C07F
:1006200060817181828193810C5F1F4F06C0608160
:10063000718180E090E00E5F1F4FA401CBD0A82E07
:10064000A818FFE7BF22B6FE0BC02B2D2E7FA514E6
:1006500050F4B4FE0AC0B2FC08C02B2D2E7E05C09B
:100660007A2C2B2D03C07A2C01C0752C24FF0DC0D1
:10067000FE01EA0DF11D8081803311F4297E09C04D
:1006800022FF06C07394739404C0822F867809F009
:10069000739423FD13C020FF0EC05A2C731458F41A
:1006A000530C5718732C07C0B70180E290E02C87D9
:1006B00065D073942C857314B8F304C0731410F4CC
:1006C000371801C0312C24FF11C0B70180E390E03E
:1006D0002C8754D02C8522FF1CC021FF03C088E545
:1006E00090E002C088E790E0B7010CC0822F8678C6
:1006F00081F021FD02C080E201C08BE227FD8DE286
:10070000B70190E03BD005C0B70180E390E036D060
:100710005A94A514C8F3AA94F401EA0DF11DB70187
:10072000808190E02BD0A110F6CF05C0B70180E208
:1007300090E024D03A943110F9CF50CEF7012681C1
:10074000378102C02FEF3FEFC9012C96E2E1BCC018
:10075000FC010590615070400110D8F7809590958C
:100760008E0F9F1F0895FC01615070400190011091
:10077000D8F7809590958E0F9F1F08950F931F9324
:10078000CF93DF938C01EB018B8181FD03C00FEFD1
:100790001FEF1AC082FF0DC02E813F818C819D8189
:1007A0002817390764F4E881F9810193F983E88314
:1007B00006C0E885F985802F0995892B41F78E8140
:1007C0009F8101969F838E83C801DF91CF911F91F6
:1007D0000F910895FA01AA27283051F1203181F1B3
:1007E000E8946F936E7F6E5F7F4F8F4F9F4FAF4F39
:1007F000B1E03ED0B4E03CD0670F781F891F9A1F4C
:10080000A11D680F791F8A1F911DA11D6A0F711DFF
:10081000811D911DA11D20D009F468943F912AE00B
:10082000269F11243019305D3193DEF6CF010895F3
:10083000462F4770405D4193B3E00FD0C9F7F6CF24
:10084000462F4F70405D4A3318F0495D31FD4052EC
:10085000419302D0A9F7EACFB4E0A6959795879582
:1008600077956795BA95C9F7009761057105089561
:100870009B01AC010A2E069457954795379527950D
:10088000BA95C9F7620F731F841F951FA01D0895A5
:100890002F923F924F925F926F927F928F929F9290
:1008A000AF92BF92CF92DF92EF92FF920F931F937E
:1008B000CF93DF93CDB7DEB7CA1BDB0B0FB6F8942F
:1008C000DEBF0FBECDBF09942A88398848885F846F
:1008D0006E847D848C849B84AA84B984C884DF80E0
:1008E000EE80FD800C811B81AA81B981CE0FD11DC4
:1008F0000FB6F894DEBF0FBECDBFED010895F8949A
:02090000FFCF27
:10090200FF034355523A25690057656C636F6D6565
:020912000000E3
:00000001FF
